{
  "contractName": "MockKittyContract",
  "abi": [
    {
      "constant": true,
      "inputs": [
        {
          "name": "",
          "type": "uint256"
        }
      ],
      "name": "kitties",
      "outputs": [
        {
          "name": "genes",
          "type": "uint256"
        },
        {
          "name": "birthTime",
          "type": "uint64"
        },
        {
          "name": "matronId",
          "type": "uint32"
        },
        {
          "name": "sireId",
          "type": "uint32"
        },
        {
          "name": "generation",
          "type": "uint32"
        }
      ],
      "payable": false,
      "stateMutability": "view",
      "type": "function"
    },
    {
      "inputs": [],
      "payable": false,
      "stateMutability": "nonpayable",
      "type": "constructor"
    },
    {
      "constant": true,
      "inputs": [
        {
          "name": "_id",
          "type": "uint256"
        }
      ],
      "name": "getKitty",
      "outputs": [
        {
          "name": "isGestating",
          "type": "bool"
        },
        {
          "name": "isReady",
          "type": "bool"
        },
        {
          "name": "cooldownIndex",
          "type": "uint256"
        },
        {
          "name": "nextActionAt",
          "type": "uint256"
        },
        {
          "name": "siringWithId",
          "type": "uint256"
        },
        {
          "name": "birthTime",
          "type": "uint256"
        },
        {
          "name": "matronId",
          "type": "uint256"
        },
        {
          "name": "sireId",
          "type": "uint256"
        },
        {
          "name": "generation",
          "type": "uint256"
        },
        {
          "name": "genes",
          "type": "uint256"
        }
      ],
      "payable": false,
      "stateMutability": "view",
      "type": "function"
    },
    {
      "constant": false,
      "inputs": [
        {
          "name": "_genes",
          "type": "uint256"
        }
      ],
      "name": "createKitty",
      "outputs": [
        {
          "name": "",
          "type": "uint256"
        }
      ],
      "payable": false,
      "stateMutability": "nonpayable",
      "type": "function"
    },
    {
      "constant": true,
      "inputs": [],
      "name": "totalKitties",
      "outputs": [
        {
          "name": "",
          "type": "uint256"
        }
      ],
      "payable": false,
      "stateMutability": "view",
      "type": "function"
    }
  ],
  "bytecode": "0x608060405234801561001057600080fd5b50610035660462d53c8abac060008060006100cf640100000000026401000000009004565b5061005a662316a9e9b3208660008060006100cf640100000000026401000000009004565b5061007f6613bcbf936b38e360008060006100cf640100000000026401000000009004565b506100a46603f28cb71571c760008060006100cf640100000000026401000000009004565b506100c9662386f26fc0ffff60008060006100cf640100000000026401000000009004565b5061025d565b60006100d9610211565b600060a0604051908101604052808881526020014267ffffffffffffffff1681526020018763ffffffff1681526020018663ffffffff1681526020018563ffffffff1681525091506001600083908060018154018082558091505090600182039060005260206000209060020201600090919290919091506000820151816000015560208201518160010160006101000a81548167ffffffffffffffff021916908367ffffffffffffffff16021790555060408201518160010160086101000a81548163ffffffff021916908363ffffffff160217905550606082015181600101600c6101000a81548163ffffffff021916908363ffffffff16021790555060808201518160010160106101000a81548163ffffffff021916908363ffffffff16021790555050500390508092505050949350505050565b60a06040519081016040528060008152602001600067ffffffffffffffff168152602001600063ffffffff168152602001600063ffffffff168152602001600063ffffffff1681525090565b61052a8061026c6000396000f300608060405260043610610062576000357c0100000000000000000000000000000000000000000000000000000000900463ffffffff1680638cc51eda14610067578063b0634664146100fc578063c0aace0b1461013d578063e98b7f4d14610168575b600080fd5b34801561007357600080fd5b50610092600480360381019080803590602001909291905050506101f0565b604051808681526020018567ffffffffffffffff1667ffffffffffffffff1681526020018463ffffffff1663ffffffff1681526020018363ffffffff1663ffffffff1681526020018263ffffffff1663ffffffff1681526020019550505050505060405180910390f35b34801561010857600080fd5b5061012760048036038101908080359060200190929190505050610279565b6040518082815260200191505060405180910390f35b34801561014957600080fd5b50610152610290565b6040518082815260200191505060405180910390f35b34801561017457600080fd5b506101936004803603810190808035906020019092919050505061029c565b604051808b1515151581526020018a1515151581526020018981526020018881526020018781526020018681526020018581526020018481526020018381526020018281526020019a505050505050505050505060405180910390f35b6000818154811015156101ff57fe5b90600052602060002090600202016000915090508060000154908060010160009054906101000a900467ffffffffffffffff16908060010160089054906101000a900463ffffffff169080600101600c9054906101000a900463ffffffff16908060010160109054906101000a900463ffffffff16905085565b6000610289826000806000610370565b9050919050565b60008080549050905090565b6000806000806000806000806000806000808c8154811015156102bb57fe5b9060005260206000209060020201905060009a50600199506000985060009750600096508060010160009054906101000a900467ffffffffffffffff1667ffffffffffffffff1695508060010160089054906101000a900463ffffffff1663ffffffff16945080600101600c9054906101000a900463ffffffff1663ffffffff1693508060010160109054906101000a900463ffffffff1663ffffffff16925080600001549150509193959799509193959799565b600061037a6104b2565b600060a0604051908101604052808881526020014267ffffffffffffffff1681526020018763ffffffff1681526020018663ffffffff1681526020018563ffffffff1681525091506001600083908060018154018082558091505090600182039060005260206000209060020201600090919290919091506000820151816000015560208201518160010160006101000a81548167ffffffffffffffff021916908367ffffffffffffffff16021790555060408201518160010160086101000a81548163ffffffff021916908363ffffffff160217905550606082015181600101600c6101000a81548163ffffffff021916908363ffffffff16021790555060808201518160010160106101000a81548163ffffffff021916908363ffffffff16021790555050500390508092505050949350505050565b60a06040519081016040528060008152602001600067ffffffffffffffff168152602001600063ffffffff168152602001600063ffffffff168152602001600063ffffffff16815250905600a165627a7a72305820969368460a2ec59088b213c99a2f65ce95844a4040c6201d93d8c60bc6861fea0029",
  "source": "pragma solidity ^0.4.25;\r\n\r\n/**\r\n * @title MockKittyContract\r\n * @dev Mock CryptoKitties contract for testing zombie feeding on Ganache\r\n */\r\ncontract MockKittyContract {\r\n    \r\n    struct Kitty {\r\n        uint256 genes;\r\n        uint64 birthTime;\r\n        uint32 matronId;\r\n        uint32 sireId;\r\n        uint32 generation;\r\n    }\r\n    \r\n    Kitty[] public kitties;\r\n    \r\n    // Create some mock kitties for testing\r\n    constructor() public {\r\n        // Create 5 mock kitties with different DNA\r\n        _createKitty(1234567890123456, 0, 0, 0);\r\n        _createKitty(9876543210987654, 0, 0, 0);\r\n        _createKitty(5555555555555555, 0, 0, 0);\r\n        _createKitty(1111111111111111, 0, 0, 0);\r\n        _createKitty(9999999999999999, 0, 0, 0);\r\n    }\r\n    \r\n    function _createKitty(\r\n        uint256 _genes,\r\n        uint256 _matronId,\r\n        uint256 _sireId,\r\n        uint256 _generation\r\n    ) internal returns (uint) {\r\n        Kitty memory _kitty = Kitty({\r\n            genes: _genes,\r\n            birthTime: uint64(now),\r\n            matronId: uint32(_matronId),\r\n            sireId: uint32(_sireId),\r\n            generation: uint32(_generation)\r\n        });\r\n        \r\n        uint256 newKittyId = kitties.push(_kitty) - 1;\r\n        return newKittyId;\r\n    }\r\n    \r\n    // This matches the CryptoKitties interface\r\n    function getKitty(uint256 _id) external view returns (\r\n        bool isGestating,\r\n        bool isReady,\r\n        uint256 cooldownIndex,\r\n        uint256 nextActionAt,\r\n        uint256 siringWithId,\r\n        uint256 birthTime,\r\n        uint256 matronId,\r\n        uint256 sireId,\r\n        uint256 generation,\r\n        uint256 genes\r\n    ) {\r\n        Kitty storage kitty = kitties[_id];\r\n        \r\n        isGestating = false;\r\n        isReady = true;\r\n        cooldownIndex = 0;\r\n        nextActionAt = 0;\r\n        siringWithId = 0;\r\n        birthTime = uint256(kitty.birthTime);\r\n        matronId = uint256(kitty.matronId);\r\n        sireId = uint256(kitty.sireId);\r\n        generation = uint256(kitty.generation);\r\n        genes = kitty.genes;\r\n    }\r\n    \r\n    // Helper function to create more kitties for testing\r\n    function createKitty(uint256 _genes) external returns (uint) {\r\n        return _createKitty(_genes, 0, 0, 0);\r\n    }\r\n    \r\n    // Get total number of kitties\r\n    function totalKitties() external view returns (uint) {\r\n        return kitties.length;\r\n    }\r\n}\r\n",
  "sourcePath": "C:\\Users\\gites\\Desktop\\block\\blockchain\\contracts\\MockKittyContract.sol",
  "compiler": {
    "name": "solc",
    "version": "0.4.25+commit.59dbf8f1.Emscripten.clang"
  },
  "schemaVersion": "3.4.4",
  "updatedAt": "2025-10-16T20:10:06.160Z",
  "networkType": "ethereum",
  "devdoc": {
    "methods": {},
    "title": "MockKittyContract\r"
  },
  "userdoc": {
    "methods": {}
  }
}