{
  "contractName": "ZombieOwnership",
  "abi": [
    {
      "constant": false,
      "inputs": [
        {
          "name": "_zombieId",
          "type": "uint256"
        }
      ],
      "name": "levelUp",
      "outputs": [],
      "payable": true,
      "stateMutability": "payable",
      "type": "function"
    },
    {
      "constant": false,
      "inputs": [
        {
          "name": "_zombieId",
          "type": "uint256"
        },
        {
          "name": "_kittyId",
          "type": "uint256"
        }
      ],
      "name": "feedOnKitty",
      "outputs": [],
      "payable": false,
      "stateMutability": "nonpayable",
      "type": "function"
    },
    {
      "constant": true,
      "inputs": [
        {
          "name": "",
          "type": "uint256"
        }
      ],
      "name": "zombies",
      "outputs": [
        {
          "name": "name",
          "type": "string"
        },
        {
          "name": "dna",
          "type": "uint256"
        },
        {
          "name": "level",
          "type": "uint32"
        },
        {
          "name": "readyTime",
          "type": "uint32"
        },
        {
          "name": "winCount",
          "type": "uint16"
        },
        {
          "name": "lossCount",
          "type": "uint16"
        }
      ],
      "payable": false,
      "stateMutability": "view",
      "type": "function"
    },
    {
      "constant": false,
      "inputs": [],
      "name": "withdraw",
      "outputs": [],
      "payable": false,
      "stateMutability": "nonpayable",
      "type": "function"
    },
    {
      "constant": true,
      "inputs": [
        {
          "name": "_owner",
          "type": "address"
        }
      ],
      "name": "getZombiesByOwner",
      "outputs": [
        {
          "name": "",
          "type": "uint256[]"
        }
      ],
      "payable": false,
      "stateMutability": "view",
      "type": "function"
    },
    {
      "constant": true,
      "inputs": [
        {
          "name": "",
          "type": "uint256"
        }
      ],
      "name": "zombieToOwner",
      "outputs": [
        {
          "name": "",
          "type": "address"
        }
      ],
      "payable": false,
      "stateMutability": "view",
      "type": "function"
    },
    {
      "constant": false,
      "inputs": [
        {
          "name": "_address",
          "type": "address"
        }
      ],
      "name": "setKittyContractAddress",
      "outputs": [],
      "payable": false,
      "stateMutability": "nonpayable",
      "type": "function"
    },
    {
      "constant": false,
      "inputs": [
        {
          "name": "_zombieId",
          "type": "uint256"
        },
        {
          "name": "_newDna",
          "type": "uint256"
        }
      ],
      "name": "changeDna",
      "outputs": [],
      "payable": false,
      "stateMutability": "nonpayable",
      "type": "function"
    },
    {
      "constant": false,
      "inputs": [],
      "name": "renounceOwnership",
      "outputs": [],
      "payable": false,
      "stateMutability": "nonpayable",
      "type": "function"
    },
    {
      "constant": false,
      "inputs": [
        {
          "name": "_name",
          "type": "string"
        }
      ],
      "name": "createRandomZombie",
      "outputs": [],
      "payable": false,
      "stateMutability": "nonpayable",
      "type": "function"
    },
    {
      "constant": true,
      "inputs": [],
      "name": "owner",
      "outputs": [
        {
          "name": "",
          "type": "address"
        }
      ],
      "payable": false,
      "stateMutability": "view",
      "type": "function"
    },
    {
      "constant": true,
      "inputs": [],
      "name": "isOwner",
      "outputs": [
        {
          "name": "",
          "type": "bool"
        }
      ],
      "payable": false,
      "stateMutability": "view",
      "type": "function"
    },
    {
      "constant": false,
      "inputs": [
        {
          "name": "_zombieId",
          "type": "uint256"
        },
        {
          "name": "_newName",
          "type": "string"
        }
      ],
      "name": "changeName",
      "outputs": [],
      "payable": false,
      "stateMutability": "nonpayable",
      "type": "function"
    },
    {
      "constant": false,
      "inputs": [
        {
          "name": "_fee",
          "type": "uint256"
        }
      ],
      "name": "setLevelUpFee",
      "outputs": [],
      "payable": false,
      "stateMutability": "nonpayable",
      "type": "function"
    },
    {
      "constant": false,
      "inputs": [
        {
          "name": "_zombieId",
          "type": "uint256"
        },
        {
          "name": "_targetId",
          "type": "uint256"
        }
      ],
      "name": "attack",
      "outputs": [],
      "payable": false,
      "stateMutability": "nonpayable",
      "type": "function"
    },
    {
      "constant": false,
      "inputs": [
        {
          "name": "newOwner",
          "type": "address"
        }
      ],
      "name": "transferOwnership",
      "outputs": [],
      "payable": false,
      "stateMutability": "nonpayable",
      "type": "function"
    },
    {
      "anonymous": false,
      "inputs": [
        {
          "indexed": true,
          "name": "_from",
          "type": "address"
        },
        {
          "indexed": true,
          "name": "_to",
          "type": "address"
        },
        {
          "indexed": true,
          "name": "_tokenId",
          "type": "uint256"
        }
      ],
      "name": "Transfer",
      "type": "event"
    },
    {
      "anonymous": false,
      "inputs": [
        {
          "indexed": true,
          "name": "_owner",
          "type": "address"
        },
        {
          "indexed": true,
          "name": "_approved",
          "type": "address"
        },
        {
          "indexed": true,
          "name": "_tokenId",
          "type": "uint256"
        }
      ],
      "name": "Approval",
      "type": "event"
    },
    {
      "anonymous": false,
      "inputs": [
        {
          "indexed": false,
          "name": "zombieId",
          "type": "uint256"
        },
        {
          "indexed": false,
          "name": "name",
          "type": "string"
        },
        {
          "indexed": false,
          "name": "dna",
          "type": "uint256"
        }
      ],
      "name": "NewZombie",
      "type": "event"
    },
    {
      "anonymous": false,
      "inputs": [
        {
          "indexed": true,
          "name": "previousOwner",
          "type": "address"
        },
        {
          "indexed": true,
          "name": "newOwner",
          "type": "address"
        }
      ],
      "name": "OwnershipTransferred",
      "type": "event"
    },
    {
      "constant": true,
      "inputs": [
        {
          "name": "_owner",
          "type": "address"
        }
      ],
      "name": "balanceOf",
      "outputs": [
        {
          "name": "",
          "type": "uint256"
        }
      ],
      "payable": false,
      "stateMutability": "view",
      "type": "function"
    },
    {
      "constant": true,
      "inputs": [
        {
          "name": "_tokenId",
          "type": "uint256"
        }
      ],
      "name": "ownerOf",
      "outputs": [
        {
          "name": "",
          "type": "address"
        }
      ],
      "payable": false,
      "stateMutability": "view",
      "type": "function"
    },
    {
      "constant": false,
      "inputs": [
        {
          "name": "_from",
          "type": "address"
        },
        {
          "name": "_to",
          "type": "address"
        },
        {
          "name": "_tokenId",
          "type": "uint256"
        }
      ],
      "name": "transferFrom",
      "outputs": [],
      "payable": true,
      "stateMutability": "payable",
      "type": "function"
    },
    {
      "constant": false,
      "inputs": [
        {
          "name": "_approved",
          "type": "address"
        },
        {
          "name": "_tokenId",
          "type": "uint256"
        }
      ],
      "name": "approve",
      "outputs": [],
      "payable": true,
      "stateMutability": "payable",
      "type": "function"
    }
  ],
  "bytecode": "0x60806040526010600155600154600a0a600255600560035566038d7ea4c6800060085560006009556046600a55336000806101000a81548173ffffffffffffffffffffffffffffffffffffffff021916908373ffffffffffffffffffffffffffffffffffffffff1602179055506000809054906101000a900473ffffffffffffffffffffffffffffffffffffffff1673ffffffffffffffffffffffffffffffffffffffff16600073ffffffffffffffffffffffffffffffffffffffff167f8be0079c531659141344cd1fd0a4f28419497f9722a3daafe3b4186f6b6457e060405160405180910390a3612205806100f76000396000f300608060405260043610610112576000357c0100000000000000000000000000000000000000000000000000000000900463ffffffff168063095ea7b3146101175780630ce90ec21461015757806317a7f4cc146101775780632052465e146101ae57806323b872dd1461029f5780633ccfd60b146102ff5780634412e10414610316578063528b7b8f146103ae5780635f4623f11461041b5780635faf28801461045e5780636352211e1461049557806370a0823114610502578063715018a6146105595780637bff0a01146105705780638da5cb5b146105d95780638f32d59b14610630578063c39cbef11461065f578063ccf670f8146106a4578063e1fa7638146106d1578063f2fde38b14610708575b600080fd5b610155600480360381019080803573ffffffffffffffffffffffffffffffffffffffff1690602001909291908035906020019092919050505061074b565b005b6101756004803603810190808035906020019092919050505061086b565b005b34801561018357600080fd5b506101ac6004803603810190808035906020019092919080359060200190929190505050610906565b005b3480156101ba57600080fd5b506101d960048036038101908080359060200190929190505050610aaf565b60405180806020018781526020018663ffffffff1663ffffffff1681526020018563ffffffff1663ffffffff1681526020018461ffff1661ffff1681526020018361ffff1661ffff168152602001828103825288818151815260200191508051906020019080838360005b8381101561025f578082015181840152602081019050610244565b50505050905090810190601f16801561028c5780820380516001836020036101000a031916815260200191505b5097505050505050505060405180910390f35b6102fd600480360381019080803573ffffffffffffffffffffffffffffffffffffffff169060200190929190803573ffffffffffffffffffffffffffffffffffffffff16906020019092919080359060200190929190505050610bce565b005b34801561030b57600080fd5b50610314610cb4565b005b34801561032257600080fd5b50610357600480360381019080803573ffffffffffffffffffffffffffffffffffffffff169060200190929190505050610d34565b6040518080602001828103825283818151815260200191508051906020019060200280838360005b8381101561039a57808201518184015260208101905061037f565b505050509050019250505060405180910390f35b3480156103ba57600080fd5b506103d960048036038101908080359060200190929190505050610e66565b604051808273ffffffffffffffffffffffffffffffffffffffff1673ffffffffffffffffffffffffffffffffffffffff16815260200191505060405180910390f35b34801561042757600080fd5b5061045c600480360381019080803573ffffffffffffffffffffffffffffffffffffffff169060200190929190505050610e99565b005b34801561046a57600080fd5b506104936004803603810190808035906020019092919080359060200190929190505050610ef0565b005b3480156104a157600080fd5b506104c060048036038101908080359060200190929190505050610fd2565b604051808273ffffffffffffffffffffffffffffffffffffffff1673ffffffffffffffffffffffffffffffffffffffff16815260200191505060405180910390f35b34801561050e57600080fd5b50610543600480360381019080803573ffffffffffffffffffffffffffffffffffffffff16906020019092919050505061100f565b6040518082815260200191505060405180910390f35b34801561056557600080fd5b5061056e611058565b005b34801561057c57600080fd5b506105d7600480360381019080803590602001908201803590602001908080601f016020809104026020016040519081016040528093929190818152602001838380828437820191505050505050919291929050505061112a565b005b3480156105e557600080fd5b506105ee611156565b604051808273ffffffffffffffffffffffffffffffffffffffff1673ffffffffffffffffffffffffffffffffffffffff16815260200191505060405180910390f35b34801561063c57600080fd5b5061064561117f565b604051808215151515815260200191505060405180910390f35b34801561066b57600080fd5b506106a2600480360381019080803590602001909291908035906020019082018035906020019190919293919293905050506111d6565b005b3480156106b057600080fd5b506106cf600480360381019080803590602001909291905050506112c4565b005b3480156106dd57600080fd5b5061070660048036038101908080359060200190929190803590602001909291905050506112e1565b005b34801561071457600080fd5b50610749600480360381019080803573ffffffffffffffffffffffffffffffffffffffff169060200190929190505050611574565b005b806005600082815260200190815260200160002060009054906101000a900473ffffffffffffffffffffffffffffffffffffffff1673ffffffffffffffffffffffffffffffffffffffff163373ffffffffffffffffffffffffffffffffffffffff161415156107b957600080fd5b82600b600084815260200190815260200160002060006101000a81548173ffffffffffffffffffffffffffffffffffffffff021916908373ffffffffffffffffffffffffffffffffffffffff160217905550818373ffffffffffffffffffffffffffffffffffffffff163373ffffffffffffffffffffffffffffffffffffffff167f8c5be1e5ebec7d5bd14f71427d1e84f3dd0314c0f7b2291e5b200ac8c7c3b92560405160405180910390a4505050565b6008543414151561087b57600080fd5b6108c5600160048381548110151561088f57fe5b906000526020600020906003020160020160009054906101000a900463ffffffff1663ffffffff1661159390919063ffffffff16565b6004828154811015156108d457fe5b906000526020600020906003020160020160006101000a81548163ffffffff021916908363ffffffff16021790555050565b6000600760009054906101000a900473ffffffffffffffffffffffffffffffffffffffff1673ffffffffffffffffffffffffffffffffffffffff1663e98b7f4d836040518263ffffffff167c01000000000000000000000000000000000000000000000000000000000281526004018082815260200191505061014060405180830381600087803b15801561099a57600080fd5b505af11580156109ae573d6000803e3d6000fd5b505050506040513d6101408110156109c557600080fd5b810190808051906020019092919080519060200190929190805190602001909291908051906020019092919080519060200190929190805190602001909291908051906020019092919080519060200190929190805190602001909291908051906020019092919050505090919293949596979850909192939495969750909192939495965090919293949550909192939450909192935090919250909150905080915050610aaa83826040805190810160405280600581526020017f6b697474790000000000000000000000000000000000000000000000000000008152506115bd565b505050565b600481815481101515610abe57fe5b9060005260206000209060030201600091509050806000018054600181600116156101000203166002900480601f016020809104026020016040519081016040528092919081815260200182805460018160011615610100020316600290048015610b6a5780601f10610b3f57610100808354040283529160200191610b6a565b820191906000526020600020905b815481529060010190602001808311610b4d57829003601f168201915b5050505050908060010154908060020160009054906101000a900463ffffffff16908060020160049054906101000a900463ffffffff16908060020160089054906101000a900461ffff169080600201600a9054906101000a900461ffff16905086565b3373ffffffffffffffffffffffffffffffffffffffff166005600083815260200190815260200160002060009054906101000a900473ffffffffffffffffffffffffffffffffffffffff1673ffffffffffffffffffffffffffffffffffffffff161480610c9957503373ffffffffffffffffffffffffffffffffffffffff16600b600083815260200190815260200160002060009054906101000a900473ffffffffffffffffffffffffffffffffffffffff1673ffffffffffffffffffffffffffffffffffffffff16145b1515610ca457600080fd5b610caf83838361186a565b505050565b6000610cbe61117f565b1515610cc957600080fd5b610cd1611156565b90508073ffffffffffffffffffffffffffffffffffffffff166108fc3073ffffffffffffffffffffffffffffffffffffffff16319081150290604051600060405180830381858888f19350505050158015610d30573d6000803e3d6000fd5b5050565b606080600080600660008673ffffffffffffffffffffffffffffffffffffffff1673ffffffffffffffffffffffffffffffffffffffff16815260200190815260200160002054604051908082528060200260200182016040528015610da85781602001602082028038833980820191505090505b50925060009150600090505b600480549050811015610e5b578473ffffffffffffffffffffffffffffffffffffffff166005600083815260200190815260200160002060009054906101000a900473ffffffffffffffffffffffffffffffffffffffff1673ffffffffffffffffffffffffffffffffffffffff161415610e4e57808383815181101515610e3757fe5b906020019060200201818152505081806001019250505b8080600101915050610db4565b829350505050919050565b60056020528060005260406000206000915054906101000a900473ffffffffffffffffffffffffffffffffffffffff1681565b610ea161117f565b1515610eac57600080fd5b80600760006101000a81548173ffffffffffffffffffffffffffffffffffffffff021916908373ffffffffffffffffffffffffffffffffffffffff16021790555050565b60148281600482815481101515610f0357fe5b906000526020600020906003020160020160009054906101000a900463ffffffff1663ffffffff1610151515610f3857600080fd5b836005600082815260200190815260200160002060009054906101000a900473ffffffffffffffffffffffffffffffffffffffff1673ffffffffffffffffffffffffffffffffffffffff163373ffffffffffffffffffffffffffffffffffffffff16141515610fa657600080fd5b83600486815481101515610fb657fe5b9060005260206000209060030201600101819055505050505050565b60006005600083815260200190815260200160002060009054906101000a900473ffffffffffffffffffffffffffffffffffffffff169050919050565b6000600660008373ffffffffffffffffffffffffffffffffffffffff1673ffffffffffffffffffffffffffffffffffffffff168152602001908152602001600020549050919050565b61106061117f565b151561106b57600080fd5b600073ffffffffffffffffffffffffffffffffffffffff166000809054906101000a900473ffffffffffffffffffffffffffffffffffffffff1673ffffffffffffffffffffffffffffffffffffffff167f8be0079c531659141344cd1fd0a4f28419497f9722a3daafe3b4186f6b6457e060405160405180910390a360008060006101000a81548173ffffffffffffffffffffffffffffffffffffffff021916908373ffffffffffffffffffffffffffffffffffffffff160217905550565b600061113582611a48565b905060648181151561114357fe5b06810390506111528282611b36565b5050565b60008060009054906101000a900473ffffffffffffffffffffffffffffffffffffffff16905090565b60008060009054906101000a900473ffffffffffffffffffffffffffffffffffffffff1673ffffffffffffffffffffffffffffffffffffffff163373ffffffffffffffffffffffffffffffffffffffff1614905090565b600283816004828154811015156111e957fe5b906000526020600020906003020160020160009054906101000a900463ffffffff1663ffffffff161015151561121e57600080fd5b846005600082815260200190815260200160002060009054906101000a900473ffffffffffffffffffffffffffffffffffffffff1673ffffffffffffffffffffffffffffffffffffffff163373ffffffffffffffffffffffffffffffffffffffff1614151561128c57600080fd5b848460048881548110151561129d57fe5b906000526020600020906003020160000191906112bb9291906120b4565b50505050505050565b6112cc61117f565b15156112d757600080fd5b8060088190555050565b6000806000846005600082815260200190815260200160002060009054906101000a900473ffffffffffffffffffffffffffffffffffffffff1673ffffffffffffffffffffffffffffffffffffffff163373ffffffffffffffffffffffffffffffffffffffff1614151561135457600080fd5b60048681548110151561136357fe5b9060005260206000209060030201935060048581548110151561138257fe5b9060005260206000209060030201925061139c6064611e09565b9150600a54821115156114d2576113d360018560020160089054906101000a900461ffff1661ffff16611f0c90919063ffffffff16565b8460020160086101000a81548161ffff021916908361ffff16021790555061141f60018560020160009054906101000a900463ffffffff1663ffffffff1661159390919063ffffffff16565b8460020160006101000a81548163ffffffff021916908363ffffffff16021790555061146b600184600201600a9054906101000a900461ffff1661ffff16611f0c90919063ffffffff16565b83600201600a6101000a81548161ffff021916908361ffff1602179055506114cd8684600101546040805190810160405280600681526020017f7a6f6d62696500000000000000000000000000000000000000000000000000008152506115bd565b61156c565b6114fc600185600201600a9054906101000a900461ffff1661ffff16611f0c90919063ffffffff16565b84600201600a6101000a81548161ffff021916908361ffff16021790555061154460018460020160089054906101000a900461ffff1661ffff16611f0c90919063ffffffff16565b8360020160086101000a81548161ffff021916908361ffff16021790555061156b84611f32565b5b505050505050565b61157c61117f565b151561158757600080fd5b61159081611f5c565b50565b60008082840190508363ffffffff168163ffffffff16101515156115b357fe5b8091505092915050565b600080846005600082815260200190815260200160002060009054906101000a900473ffffffffffffffffffffffffffffffffffffffff1673ffffffffffffffffffffffffffffffffffffffff163373ffffffffffffffffffffffffffffffffffffffff1614151561162e57600080fd5b60048681548110151561163d57fe5b9060005260206000209060030201925061165683612056565b151561166157600080fd5b6002548581151561166e57fe5b06945060028584600101540181151561168357fe5b04915060405160200180807f6b6974747900000000000000000000000000000000000000000000000000000081525060050190506040516020818303038152906040526040518082805190602001908083835b6020831015156116fb57805182526020820191506020810190506020830392506116d6565b6001836020036101000a038019825116818451168082178552505050505050905001915050604051809103902060001916846040516020018082805190602001908083835b6020831015156117655780518252602082019150602081019050602083039250611740565b6001836020036101000a0380198251168184511680821785525050505050509050019150506040516020818303038152906040526040518082805190602001908083835b6020831015156117ce57805182526020820191506020810190506020830392506117a9565b6001836020036101000a038019825116818451168082178552505050505050905001915050604051809103902060001916141561181a57606360648381151561181357fe5b0683030191505b6118596040805190810160405280600681526020017f4e6f4e616d65000000000000000000000000000000000000000000000000000081525083611b36565b61186283611f32565b505050505050565b6118bd6001600660008573ffffffffffffffffffffffffffffffffffffffff1673ffffffffffffffffffffffffffffffffffffffff1681526020019081526020016000205461207d90919063ffffffff16565b600660008473ffffffffffffffffffffffffffffffffffffffff1673ffffffffffffffffffffffffffffffffffffffff168152602001908152602001600020819055506119536001600660003373ffffffffffffffffffffffffffffffffffffffff1673ffffffffffffffffffffffffffffffffffffffff1681526020019081526020016000205461209b90919063ffffffff16565b600660003373ffffffffffffffffffffffffffffffffffffffff1673ffffffffffffffffffffffffffffffffffffffff16815260200190815260200160002081905550816005600083815260200190815260200160002060006101000a81548173ffffffffffffffffffffffffffffffffffffffff021916908373ffffffffffffffffffffffffffffffffffffffff160217905550808273ffffffffffffffffffffffffffffffffffffffff168473ffffffffffffffffffffffffffffffffffffffff167fddf252ad1be2c89b69c2b068fc378daa952ba7f163c4a11628f55a4df523b3ef60405160405180910390a4505050565b600080826040516020018082805190602001908083835b602083101515611a845780518252602082019150602081019050602083039250611a5f565b6001836020036101000a0380198251168184511680821785525050505050509050019150506040516020818303038152906040526040518082805190602001908083835b602083101515611aed5780518252602082019150602081019050602083039250611ac8565b6001836020036101000a038019825116818451168082178552505050505050905001915050604051809103902060019004905060025481811515611b2d57fe5b06915050919050565b60006001600460c060405190810160405280868152602001858152602001600163ffffffff168152602001600354420163ffffffff168152602001600061ffff168152602001600061ffff16815250908060018154018082558091505090600182039060005260206000209060030201600090919290919091506000820151816000019080519060200190611bcc929190612134565b506020820151816001015560408201518160020160006101000a81548163ffffffff021916908363ffffffff16021790555060608201518160020160046101000a81548163ffffffff021916908363ffffffff16021790555060808201518160020160086101000a81548161ffff021916908361ffff16021790555060a082015181600201600a6101000a81548161ffff021916908361ffff1602179055505050039050336005600083815260200190815260200160002060006101000a81548173ffffffffffffffffffffffffffffffffffffffff021916908373ffffffffffffffffffffffffffffffffffffffff160217905550611d156001600660003373ffffffffffffffffffffffffffffffffffffffff1673ffffffffffffffffffffffffffffffffffffffff1681526020019081526020016000205461207d90919063ffffffff16565b600660003373ffffffffffffffffffffffffffffffffffffffff1673ffffffffffffffffffffffffffffffffffffffff168152602001908152602001600020819055507f88f026aacbbecc90c18411df4b1185fd8d9be2470f1962f192bf84a27d0704b78184846040518084815260200180602001838152602001828103825284818151815260200191508051906020019080838360005b83811015611dc8578082015181840152602081019050611dad565b50505050905090810190601f168015611df55780820380516001836020036101000a031916815260200191505b5094505050505060405180910390a1505050565b6000611e21600160095461207d90919063ffffffff16565b600981905550814233600954604051602001808481526020018373ffffffffffffffffffffffffffffffffffffffff1673ffffffffffffffffffffffffffffffffffffffff166c0100000000000000000000000002815260140182815260200193505050506040516020818303038152906040526040518082805190602001908083835b602083101515611eca5780518252602082019150602081019050602083039250611ea5565b6001836020036101000a038019825116818451168082178552505050505050905001915050604051809103902060019004811515611f0457fe5b069050919050565b60008082840190508361ffff168161ffff1610151515611f2857fe5b8091505092915050565b60035442018160020160046101000a81548163ffffffff021916908363ffffffff16021790555050565b600073ffffffffffffffffffffffffffffffffffffffff168173ffffffffffffffffffffffffffffffffffffffff1614151515611f9857600080fd5b8073ffffffffffffffffffffffffffffffffffffffff166000809054906101000a900473ffffffffffffffffffffffffffffffffffffffff1673ffffffffffffffffffffffffffffffffffffffff167f8be0079c531659141344cd1fd0a4f28419497f9722a3daafe3b4186f6b6457e060405160405180910390a3806000806101000a81548173ffffffffffffffffffffffffffffffffffffffff021916908373ffffffffffffffffffffffffffffffffffffffff16021790555050565b6000428260020160049054906101000a900463ffffffff1663ffffffff1611159050919050565b600080828401905083811015151561209157fe5b8091505092915050565b60008282111515156120a957fe5b818303905092915050565b828054600181600116156101000203166002900490600052602060002090601f016020900481019282601f106120f557803560ff1916838001178555612123565b82800160010185558215612123579182015b82811115612122578235825591602001919060010190612107565b5b50905061213091906121b4565b5090565b828054600181600116156101000203166002900490600052602060002090601f016020900481019282601f1061217557805160ff19168380011785556121a3565b828001600101855582156121a3579182015b828111156121a2578251825591602001919060010190612187565b5b5090506121b091906121b4565b5090565b6121d691905b808211156121d25760008160009055506001016121ba565b5090565b905600a165627a7a72305820b29a6d5178ecdd8ffcd1357e32fa4bfa56ca5a85693ef7b8174211bb669efb140029",
  "source": "pragma solidity ^0.4.25;\r\n\r\nimport \"./zombieattack.sol\";\r\nimport \"./erc721.sol\";\r\nimport \"./safemath.sol\";\r\n\r\ncontract ZombieOwnership is ZombieAttack, ERC721 {\r\n\r\n  using SafeMath for uint256;\r\n\r\n  mapping (uint => address) zombieApprovals;\r\n\r\n  function balanceOf(address _owner) external view returns (uint256) {\r\n    return ownerZombieCount[_owner];\r\n  }\r\n\r\n  function ownerOf(uint256 _tokenId) external view returns (address) {\r\n    return zombieToOwner[_tokenId];\r\n  }\r\n\r\n  function _transfer(address _from, address _to, uint256 _tokenId) private {\r\n    ownerZombieCount[_to] = ownerZombieCount[_to].add(1);\r\n    ownerZombieCount[msg.sender] = ownerZombieCount[msg.sender].sub(1);\r\n    zombieToOwner[_tokenId] = _to;\r\n    emit Transfer(_from, _to, _tokenId);\r\n  }\r\n\r\n  function transferFrom(address _from, address _to, uint256 _tokenId) external payable {\r\n      require (zombieToOwner[_tokenId] == msg.sender || zombieApprovals[_tokenId] == msg.sender);\r\n      _transfer(_from, _to, _tokenId);\r\n    }\r\n\r\n  function approve(address _approved, uint256 _tokenId) external payable onlyOwnerOf(_tokenId) {\r\n      zombieApprovals[_tokenId] = _approved;\r\n      emit Approval(msg.sender, _approved, _tokenId);\r\n    }\r\n\r\n}\r\n",
  "sourcePath": "C:\\Users\\gites\\Desktop\\block\\blockchain\\contracts\\zombieownership.sol",
  "compiler": {
    "name": "solc",
    "version": "0.4.25+commit.59dbf8f1.Emscripten.clang"
  },
  "schemaVersion": "3.4.4",
  "updatedAt": "2025-10-15T21:46:55.194Z",
  "networkType": "ethereum",
  "devdoc": {
    "methods": {
      "isOwner()": {
        "return": "true if `msg.sender` is the owner of the contract.\r"
      },
      "owner()": {
        "return": "the address of the owner.\r"
      },
      "renounceOwnership()": {
        "details": "Allows the current owner to relinquish control of the contract.\r"
      },
      "transferOwnership(address)": {
        "details": "Allows the current owner to transfer control of the contract to a newOwner.\r",
        "params": {
          "newOwner": "The address to transfer ownership to.\r"
        }
      }
    }
  },
  "userdoc": {
    "methods": {
      "renounceOwnership()": {
        "notice": "Renouncing to ownership will leave the contract without an owner.\r It will not be possible to call the functions with the `onlyOwner`\r modifier anymore.\r"
      }
    }
  }
}